{
  "_format": "hh-sol-artifact-1",
  "contractName": "MyNFT",
  "sourceName": "contracts/MyNFT.sol",
  "abi": [
    {
      "inputs": [],
      "stateMutability": "nonpayable",
      "type": "constructor"
    },
    {
      "anonymous": false,
      "inputs": [
        {
          "indexed": true,
          "internalType": "address",
          "name": "owner",
          "type": "address"
        },
        {
          "indexed": true,
          "internalType": "address",
          "name": "approved",
          "type": "address"
        },
        {
          "indexed": true,
          "internalType": "uint256",
          "name": "tokenId",
          "type": "uint256"
        }
      ],
      "name": "Approval",
      "type": "event"
    },
    {
      "anonymous": false,
      "inputs": [
        {
          "indexed": true,
          "internalType": "address",
          "name": "owner",
          "type": "address"
        },
        {
          "indexed": true,
          "internalType": "address",
          "name": "operator",
          "type": "address"
        },
        {
          "indexed": false,
          "internalType": "bool",
          "name": "approved",
          "type": "bool"
        }
      ],
      "name": "ApprovalForAll",
      "type": "event"
    },
    {
      "anonymous": false,
      "inputs": [
        {
          "indexed": true,
          "internalType": "uint256",
          "name": "tokenId",
          "type": "uint256"
        },
        {
          "indexed": false,
          "internalType": "uint256",
          "name": "goal",
          "type": "uint256"
        }
      ],
      "name": "CampaignCreated",
      "type": "event"
    },
    {
      "anonymous": false,
      "inputs": [
        {
          "indexed": true,
          "internalType": "uint256",
          "name": "tokenId",
          "type": "uint256"
        },
        {
          "indexed": true,
          "internalType": "address",
          "name": "donor",
          "type": "address"
        },
        {
          "indexed": false,
          "internalType": "uint256",
          "name": "amount",
          "type": "uint256"
        }
      ],
      "name": "DonationReceived",
      "type": "event"
    },
    {
      "anonymous": false,
      "inputs": [
        {
          "indexed": true,
          "internalType": "address",
          "name": "previousOwner",
          "type": "address"
        },
        {
          "indexed": true,
          "internalType": "address",
          "name": "newOwner",
          "type": "address"
        }
      ],
      "name": "OwnershipTransferred",
      "type": "event"
    },
    {
      "anonymous": false,
      "inputs": [
        {
          "indexed": true,
          "internalType": "address",
          "name": "from",
          "type": "address"
        },
        {
          "indexed": true,
          "internalType": "address",
          "name": "to",
          "type": "address"
        },
        {
          "indexed": true,
          "internalType": "uint256",
          "name": "tokenId",
          "type": "uint256"
        }
      ],
      "name": "Transfer",
      "type": "event"
    },
    {
      "anonymous": false,
      "inputs": [
        {
          "indexed": true,
          "internalType": "uint256",
          "name": "tokenId",
          "type": "uint256"
        },
        {
          "indexed": true,
          "internalType": "address",
          "name": "creator",
          "type": "address"
        },
        {
          "indexed": false,
          "internalType": "uint256",
          "name": "amount",
          "type": "uint256"
        }
      ],
      "name": "Withdrawal",
      "type": "event"
    },
    {
      "inputs": [
        {
          "internalType": "address",
          "name": "to",
          "type": "address"
        },
        {
          "internalType": "uint256",
          "name": "tokenId",
          "type": "uint256"
        }
      ],
      "name": "approve",
      "outputs": [],
      "stateMutability": "nonpayable",
      "type": "function"
    },
    {
      "inputs": [
        {
          "internalType": "address",
          "name": "owner",
          "type": "address"
        }
      ],
      "name": "balanceOf",
      "outputs": [
        {
          "internalType": "uint256",
          "name": "",
          "type": "uint256"
        }
      ],
      "stateMutability": "view",
      "type": "function"
    },
    {
      "inputs": [
        {
          "internalType": "uint256",
          "name": "goal",
          "type": "uint256"
        },
        {
          "internalType": "string",
          "name": "uri",
          "type": "string"
        }
      ],
      "name": "createCampaign",
      "outputs": [
        {
          "internalType": "uint256",
          "name": "",
          "type": "uint256"
        }
      ],
      "stateMutability": "nonpayable",
      "type": "function"
    },
    {
      "inputs": [
        {
          "internalType": "uint256",
          "name": "tokenId",
          "type": "uint256"
        }
      ],
      "name": "donate",
      "outputs": [],
      "stateMutability": "payable",
      "type": "function"
    },
    {
      "inputs": [
        {
          "internalType": "uint256",
          "name": "tokenId",
          "type": "uint256"
        }
      ],
      "name": "getApproved",
      "outputs": [
        {
          "internalType": "address",
          "name": "",
          "type": "address"
        }
      ],
      "stateMutability": "view",
      "type": "function"
    },
    {
      "inputs": [
        {
          "internalType": "uint256",
          "name": "tokenId",
          "type": "uint256"
        }
      ],
      "name": "getCampaign",
      "outputs": [
        {
          "components": [
            {
              "internalType": "uint256",
              "name": "goal",
              "type": "uint256"
            },
            {
              "internalType": "uint256",
              "name": "totalFunding",
              "type": "uint256"
            },
            {
              "internalType": "address payable",
              "name": "creator",
              "type": "address"
            }
          ],
          "internalType": "struct MyNFT.Campaign",
          "name": "",
          "type": "tuple"
        }
      ],
      "stateMutability": "view",
      "type": "function"
    },
    {
      "inputs": [
        {
          "internalType": "address",
          "name": "owner",
          "type": "address"
        },
        {
          "internalType": "address",
          "name": "operator",
          "type": "address"
        }
      ],
      "name": "isApprovedForAll",
      "outputs": [
        {
          "internalType": "bool",
          "name": "",
          "type": "bool"
        }
      ],
      "stateMutability": "view",
      "type": "function"
    },
    {
      "inputs": [],
      "name": "name",
      "outputs": [
        {
          "internalType": "string",
          "name": "",
          "type": "string"
        }
      ],
      "stateMutability": "view",
      "type": "function"
    },
    {
      "inputs": [],
      "name": "owner",
      "outputs": [
        {
          "internalType": "address",
          "name": "",
          "type": "address"
        }
      ],
      "stateMutability": "view",
      "type": "function"
    },
    {
      "inputs": [
        {
          "internalType": "uint256",
          "name": "tokenId",
          "type": "uint256"
        }
      ],
      "name": "ownerOf",
      "outputs": [
        {
          "internalType": "address",
          "name": "",
          "type": "address"
        }
      ],
      "stateMutability": "view",
      "type": "function"
    },
    {
      "inputs": [],
      "name": "renounceOwnership",
      "outputs": [],
      "stateMutability": "nonpayable",
      "type": "function"
    },
    {
      "inputs": [
        {
          "internalType": "address",
          "name": "from",
          "type": "address"
        },
        {
          "internalType": "address",
          "name": "to",
          "type": "address"
        },
        {
          "internalType": "uint256",
          "name": "tokenId",
          "type": "uint256"
        }
      ],
      "name": "safeTransferFrom",
      "outputs": [],
      "stateMutability": "nonpayable",
      "type": "function"
    },
    {
      "inputs": [
        {
          "internalType": "address",
          "name": "from",
          "type": "address"
        },
        {
          "internalType": "address",
          "name": "to",
          "type": "address"
        },
        {
          "internalType": "uint256",
          "name": "tokenId",
          "type": "uint256"
        },
        {
          "internalType": "bytes",
          "name": "data",
          "type": "bytes"
        }
      ],
      "name": "safeTransferFrom",
      "outputs": [],
      "stateMutability": "nonpayable",
      "type": "function"
    },
    {
      "inputs": [
        {
          "internalType": "address",
          "name": "operator",
          "type": "address"
        },
        {
          "internalType": "bool",
          "name": "approved",
          "type": "bool"
        }
      ],
      "name": "setApprovalForAll",
      "outputs": [],
      "stateMutability": "nonpayable",
      "type": "function"
    },
    {
      "inputs": [
        {
          "internalType": "bytes4",
          "name": "interfaceId",
          "type": "bytes4"
        }
      ],
      "name": "supportsInterface",
      "outputs": [
        {
          "internalType": "bool",
          "name": "",
          "type": "bool"
        }
      ],
      "stateMutability": "view",
      "type": "function"
    },
    {
      "inputs": [],
      "name": "symbol",
      "outputs": [
        {
          "internalType": "string",
          "name": "",
          "type": "string"
        }
      ],
      "stateMutability": "view",
      "type": "function"
    },
    {
      "inputs": [
        {
          "internalType": "uint256",
          "name": "index",
          "type": "uint256"
        }
      ],
      "name": "tokenByIndex",
      "outputs": [
        {
          "internalType": "uint256",
          "name": "",
          "type": "uint256"
        }
      ],
      "stateMutability": "view",
      "type": "function"
    },
    {
      "inputs": [
        {
          "internalType": "address",
          "name": "owner",
          "type": "address"
        },
        {
          "internalType": "uint256",
          "name": "index",
          "type": "uint256"
        }
      ],
      "name": "tokenOfOwnerByIndex",
      "outputs": [
        {
          "internalType": "uint256",
          "name": "",
          "type": "uint256"
        }
      ],
      "stateMutability": "view",
      "type": "function"
    },
    {
      "inputs": [
        {
          "internalType": "uint256",
          "name": "tokenId",
          "type": "uint256"
        }
      ],
      "name": "tokenURI",
      "outputs": [
        {
          "internalType": "string",
          "name": "",
          "type": "string"
        }
      ],
      "stateMutability": "view",
      "type": "function"
    },
    {
      "inputs": [],
      "name": "totalSupply",
      "outputs": [
        {
          "internalType": "uint256",
          "name": "",
          "type": "uint256"
        }
      ],
      "stateMutability": "view",
      "type": "function"
    },
    {
      "inputs": [
        {
          "internalType": "address",
          "name": "from",
          "type": "address"
        },
        {
          "internalType": "address",
          "name": "to",
          "type": "address"
        },
        {
          "internalType": "uint256",
          "name": "tokenId",
          "type": "uint256"
        }
      ],
      "name": "transferFrom",
      "outputs": [],
      "stateMutability": "nonpayable",
      "type": "function"
    },
    {
      "inputs": [
        {
          "internalType": "address",
          "name": "newOwner",
          "type": "address"
        }
      ],
      "name": "transferOwnership",
      "outputs": [],
      "stateMutability": "nonpayable",
      "type": "function"
    },
    {
      "inputs": [
        {
          "internalType": "uint256",
          "name": "tokenId",
          "type": "uint256"
        }
      ],
      "name": "withdraw",
      "outputs": [],
      "stateMutability": "nonpayable",
      "type": "function"
    }
  ],
  "bytecode": "0x60806040523480156200001157600080fd5b506040518060400160405280601381526020017f43656c6f4e465443726f776466756e64696e67000000000000000000000000008152506040518060400160405280600481526020017f434e465400000000000000000000000000000000000000000000000000000000815250816000908051906020019062000096929190620001a6565b508060019080519060200190620000af929190620001a6565b505050620000d2620000c6620000d860201b60201c565b620000e060201b60201c565b620002bb565b600033905090565b6000600b60009054906101000a900473ffffffffffffffffffffffffffffffffffffffff16905081600b60006101000a81548173ffffffffffffffffffffffffffffffffffffffff021916908373ffffffffffffffffffffffffffffffffffffffff1602179055508173ffffffffffffffffffffffffffffffffffffffff168173ffffffffffffffffffffffffffffffffffffffff167f8be0079c531659141344cd1fd0a4f28419497f9722a3daafe3b4186f6b6457e060405160405180910390a35050565b828054620001b49062000256565b90600052602060002090601f016020900481019282620001d8576000855562000224565b82601f10620001f357805160ff191683800117855562000224565b8280016001018555821562000224579182015b828111156200022357825182559160200191906001019062000206565b5b50905062000233919062000237565b5090565b5b808211156200025257600081600090555060010162000238565b5090565b600060028204905060018216806200026f57607f821691505b602082108114156200028657620002856200028c565b5b50919050565b7f4e487b7100000000000000000000000000000000000000000000000000000000600052602260045260246000fd5b613fcd80620002cb6000396000f3fe6080604052600436106101405760003560e01c80635598f8cc116100b6578063a22cb4651161006f578063a22cb46514610494578063b88d4fde146104bd578063c87b56dd146104e6578063e985e9c514610523578063f14faf6f14610560578063f2fde38b1461057c57610140565b80635598f8cc146103705780636352211e146103ad57806370a08231146103ea578063715018a6146104275780638da5cb5b1461043e57806395d89b411461046957610140565b806323b872dd1161010857806323b872dd1461023e5780632e1a7d4d146102675780632f745c59146102905780634220d656146102cd57806342842e0e1461030a5780634f6ccce71461033357610140565b806301ffc9a71461014557806306fdde0314610182578063081812fc146101ad578063095ea7b3146101ea57806318160ddd14610213575b600080fd5b34801561015157600080fd5b5061016c60048036038101906101679190612eca565b6105a5565b6040516101799190613414565b60405180910390f35b34801561018e57600080fd5b506101976105b7565b6040516101a4919061342f565b60405180910390f35b3480156101b957600080fd5b506101d460048036038101906101cf9190612f1c565b610649565b6040516101e191906133ad565b60405180910390f35b3480156101f657600080fd5b50610211600480360381019061020c9190612e8e565b61068f565b005b34801561021f57600080fd5b506102286107a7565b60405161023591906136ec565b60405180910390f35b34801561024a57600080fd5b5061026560048036038101906102609190612d88565b6107b4565b005b34801561027357600080fd5b5061028e60048036038101906102899190612f1c565b610814565b005b34801561029c57600080fd5b506102b760048036038101906102b29190612e8e565b61098f565b6040516102c491906136ec565b60405180910390f35b3480156102d957600080fd5b506102f460048036038101906102ef9190612f45565b610a34565b60405161030191906136ec565b60405180910390f35b34801561031657600080fd5b50610331600480360381019061032c9190612d88565b610b8f565b005b34801561033f57600080fd5b5061035a60048036038101906103559190612f1c565b610baf565b60405161036791906136ec565b60405180910390f35b34801561037c57600080fd5b5061039760048036038101906103929190612f1c565b610c46565b6040516103a491906136d1565b60405180910390f35b3480156103b957600080fd5b506103d460048036038101906103cf9190612f1c565b610cdd565b6040516103e191906133ad565b60405180910390f35b3480156103f657600080fd5b50610411600480360381019061040c9190612d23565b610d64565b60405161041e91906136ec565b60405180910390f35b34801561043357600080fd5b5061043c610e1c565b005b34801561044a57600080fd5b50610453610e30565b60405161046091906133ad565b60405180910390f35b34801561047557600080fd5b5061047e610e5a565b60405161048b919061342f565b60405180910390f35b3480156104a057600080fd5b506104bb60048036038101906104b69190612e52565b610eec565b005b3480156104c957600080fd5b506104e460048036038101906104df9190612dd7565b610f02565b005b3480156104f257600080fd5b5061050d60048036038101906105089190612f1c565b610f64565b60405161051a919061342f565b60405180910390f35b34801561052f57600080fd5b5061054a60048036038101906105459190612d4c565b610f76565b6040516105579190613414565b60405180910390f35b61057a60048036038101906105759190612f1c565b61100a565b005b34801561058857600080fd5b506105a3600480360381019061059e9190612d23565b6110d2565b005b60006105b082611156565b9050919050565b6060600080546105c6906138f2565b80601f01602080910402602001604051908101604052809291908181526020018280546105f2906138f2565b801561063f5780601f106106145761010080835404028352916020019161063f565b820191906000526020600020905b81548152906001019060200180831161062257829003601f168201915b5050505050905090565b6000610654826111d0565b6004600083815260200190815260200160002060009054906101000a900473ffffffffffffffffffffffffffffffffffffffff169050919050565b600061069a82610cdd565b90508073ffffffffffffffffffffffffffffffffffffffff168373ffffffffffffffffffffffffffffffffffffffff16141561070b576040517f08c379a0000000000000000000000000000000000000000000000000000000008152600401610702906135f1565b60405180910390fd5b8073ffffffffffffffffffffffffffffffffffffffff1661072a61121b565b73ffffffffffffffffffffffffffffffffffffffff16148061075957506107588161075361121b565b610f76565b5b610798576040517f08c379a000000000000000000000000000000000000000000000000000000000815260040161078f90613611565b60405180910390fd5b6107a28383611223565b505050565b6000600880549050905090565b6107c56107bf61121b565b826112dc565b610804576040517f08c379a00000000000000000000000000000000000000000000000000000000081526004016107fb90613451565b60405180910390fd5b61080f838383611371565b505050565b6000600d600083815260200190815260200160002090503373ffffffffffffffffffffffffffffffffffffffff168160020160009054906101000a900473ffffffffffffffffffffffffffffffffffffffff1673ffffffffffffffffffffffffffffffffffffffff16146108bd576040517f08c379a00000000000000000000000000000000000000000000000000000000081526004016108b490613631565b60405180910390fd5b600081600101549050600082600101819055508160020160009054906101000a900473ffffffffffffffffffffffffffffffffffffffff1673ffffffffffffffffffffffffffffffffffffffff166108fc829081150290604051600060405180830381858888f1935050505015801561093a573d6000803e3d6000fd5b503373ffffffffffffffffffffffffffffffffffffffff16837f37e8063b72a944a76de602f32b82fd8c2a1c6f99564c727ffaf913c7762cd4208360405161098291906136ec565b60405180910390a3505050565b600061099a83610d64565b82106109db576040517f08c379a00000000000000000000000000000000000000000000000000000000081526004016109d290613471565b60405180910390fd5b600660008473ffffffffffffffffffffffffffffffffffffffff1673ffffffffffffffffffffffffffffffffffffffff168152602001908152602001600020600083815260200190815260200160002054905092915050565b6000808411610a78576040517f08c379a0000000000000000000000000000000000000000000000000000000008152600401610a6f906136b1565b60405180910390fd5b6000610a84600c61166b565b9050610a90600c611679565b610a9a338261168f565b610ae88185858080601f016020809104026020016040519081016040528093929190818152602001838380828437600081840152601f19601f820116905080830192505050505050506116ad565b6000600d60008381526020019081526020016000209050858160000181905550338160020160006101000a81548173ffffffffffffffffffffffffffffffffffffffff021916908373ffffffffffffffffffffffffffffffffffffffff160217905550817fdf1ccadd90c8987aa73568b11e0c57744db13dccf98de0a82f2b9bc6edb3d10487604051610b7b91906136ec565b60405180910390a281925050509392505050565b610baa83838360405180602001604052806000815250610f02565b505050565b6000610bb96107a7565b8210610bfa576040517f08c379a0000000000000000000000000000000000000000000000000000000008152600401610bf190613651565b60405180910390fd5b60088281548110610c34577f4e487b7100000000000000000000000000000000000000000000000000000000600052603260045260246000fd5b90600052602060002001549050919050565b610c4e612b2e565b600d600083815260200190815260200160002060405180606001604052908160008201548152602001600182015481526020016002820160009054906101000a900473ffffffffffffffffffffffffffffffffffffffff1673ffffffffffffffffffffffffffffffffffffffff1673ffffffffffffffffffffffffffffffffffffffff16815250509050919050565b600080610ce983611721565b9050600073ffffffffffffffffffffffffffffffffffffffff168173ffffffffffffffffffffffffffffffffffffffff161415610d5b576040517f08c379a0000000000000000000000000000000000000000000000000000000008152600401610d52906135d1565b60405180910390fd5b80915050919050565b60008073ffffffffffffffffffffffffffffffffffffffff168273ffffffffffffffffffffffffffffffffffffffff161415610dd5576040517f08c379a0000000000000000000000000000000000000000000000000000000008152600401610dcc90613551565b60405180910390fd5b600360008373ffffffffffffffffffffffffffffffffffffffff1673ffffffffffffffffffffffffffffffffffffffff168152602001908152602001600020549050919050565b610e2461175e565b610e2e60006117dc565b565b6000600b60009054906101000a900473ffffffffffffffffffffffffffffffffffffffff16905090565b606060018054610e69906138f2565b80601f0160208091040260200160405190810160405280929190818152602001828054610e95906138f2565b8015610ee25780601f10610eb757610100808354040283529160200191610ee2565b820191906000526020600020905b815481529060010190602001808311610ec557829003601f168201915b5050505050905090565b610efe610ef761121b565b83836118a2565b5050565b610f13610f0d61121b565b836112dc565b610f52576040517f08c379a0000000000000000000000000000000000000000000000000000000008152600401610f4990613451565b60405180910390fd5b610f5e84848484611a0f565b50505050565b6060610f6f82611a6b565b9050919050565b6000600560008473ffffffffffffffffffffffffffffffffffffffff1673ffffffffffffffffffffffffffffffffffffffff16815260200190815260200160002060008373ffffffffffffffffffffffffffffffffffffffff1673ffffffffffffffffffffffffffffffffffffffff16815260200190815260200160002060009054906101000a900460ff16905092915050565b6000600d6000838152602001908152602001600020905060003411611064576040517f08c379a000000000000000000000000000000000000000000000000000000000815260040161105b90613671565b60405180910390fd5b3481600101600082825461107891906137a0565b925050819055503373ffffffffffffffffffffffffffffffffffffffff16827f0b5b4c52969ff7329ecf7ee536409fda87812b15a8622bc6e8cdeab3aee14a26346040516110c691906136ec565b60405180910390a35050565b6110da61175e565b600073ffffffffffffffffffffffffffffffffffffffff168173ffffffffffffffffffffffffffffffffffffffff16141561114a576040517f08c379a0000000000000000000000000000000000000000000000000000000008152600401611141906134b1565b60405180910390fd5b611153816117dc565b50565b60007f780e9d63000000000000000000000000000000000000000000000000000000007bffffffffffffffffffffffffffffffffffffffffffffffffffffffff1916827bffffffffffffffffffffffffffffffffffffffffffffffffffffffff191614806111c957506111c882611b7e565b5b9050919050565b6111d981611c60565b611218576040517f08c379a000000000000000000000000000000000000000000000000000000000815260040161120f906135d1565b60405180910390fd5b50565b600033905090565b816004600083815260200190815260200160002060006101000a81548173ffffffffffffffffffffffffffffffffffffffff021916908373ffffffffffffffffffffffffffffffffffffffff160217905550808273ffffffffffffffffffffffffffffffffffffffff1661129683610cdd565b73ffffffffffffffffffffffffffffffffffffffff167f8c5be1e5ebec7d5bd14f71427d1e84f3dd0314c0f7b2291e5b200ac8c7c3b92560405160405180910390a45050565b6000806112e883610cdd565b90508073ffffffffffffffffffffffffffffffffffffffff168473ffffffffffffffffffffffffffffffffffffffff16148061132a57506113298185610f76565b5b8061136857508373ffffffffffffffffffffffffffffffffffffffff1661135084610649565b73ffffffffffffffffffffffffffffffffffffffff16145b91505092915050565b8273ffffffffffffffffffffffffffffffffffffffff1661139182610cdd565b73ffffffffffffffffffffffffffffffffffffffff16146113e7576040517f08c379a00000000000000000000000000000000000000000000000000000000081526004016113de906134d1565b60405180910390fd5b600073ffffffffffffffffffffffffffffffffffffffff168273ffffffffffffffffffffffffffffffffffffffff161415611457576040517f08c379a000000000000000000000000000000000000000000000000000000000815260040161144e90613511565b60405180910390fd5b6114648383836001611ca1565b8273ffffffffffffffffffffffffffffffffffffffff1661148482610cdd565b73ffffffffffffffffffffffffffffffffffffffff16146114da576040517f08c379a00000000000000000000000000000000000000000000000000000000081526004016114d1906134d1565b60405180910390fd5b6004600082815260200190815260200160002060006101000a81549073ffffffffffffffffffffffffffffffffffffffff02191690556001600360008573ffffffffffffffffffffffffffffffffffffffff1673ffffffffffffffffffffffffffffffffffffffff168152602001908152602001600020600082825403925050819055506001600360008473ffffffffffffffffffffffffffffffffffffffff1673ffffffffffffffffffffffffffffffffffffffff16815260200190815260200160002060008282540192505081905550816002600083815260200190815260200160002060006101000a81548173ffffffffffffffffffffffffffffffffffffffff021916908373ffffffffffffffffffffffffffffffffffffffff160217905550808273ffffffffffffffffffffffffffffffffffffffff168473ffffffffffffffffffffffffffffffffffffffff167fddf252ad1be2c89b69c2b068fc378daa952ba7f163c4a11628f55a4df523b3ef60405160405180910390a46116668383836001611cb3565b505050565b600081600001549050919050565b6001816000016000828254019250508190555050565b6116a9828260405180602001604052806000815250611cb9565b5050565b6116b682611c60565b6116f5576040517f08c379a00000000000000000000000000000000000000000000000000000000081526004016116ec90613571565b60405180910390fd5b80600a6000848152602001908152602001600020908051906020019061171c929190612b65565b505050565b60006002600083815260200190815260200160002060009054906101000a900473ffffffffffffffffffffffffffffffffffffffff169050919050565b61176661121b565b73ffffffffffffffffffffffffffffffffffffffff16611784610e30565b73ffffffffffffffffffffffffffffffffffffffff16146117da576040517f08c379a00000000000000000000000000000000000000000000000000000000081526004016117d1906135b1565b60405180910390fd5b565b6000600b60009054906101000a900473ffffffffffffffffffffffffffffffffffffffff16905081600b60006101000a81548173ffffffffffffffffffffffffffffffffffffffff021916908373ffffffffffffffffffffffffffffffffffffffff1602179055508173ffffffffffffffffffffffffffffffffffffffff168173ffffffffffffffffffffffffffffffffffffffff167f8be0079c531659141344cd1fd0a4f28419497f9722a3daafe3b4186f6b6457e060405160405180910390a35050565b8173ffffffffffffffffffffffffffffffffffffffff168373ffffffffffffffffffffffffffffffffffffffff161415611911576040517f08c379a000000000000000000000000000000000000000000000000000000000815260040161190890613531565b60405180910390fd5b80600560008573ffffffffffffffffffffffffffffffffffffffff1673ffffffffffffffffffffffffffffffffffffffff16815260200190815260200160002060008473ffffffffffffffffffffffffffffffffffffffff1673ffffffffffffffffffffffffffffffffffffffff16815260200190815260200160002060006101000a81548160ff0219169083151502179055508173ffffffffffffffffffffffffffffffffffffffff168373ffffffffffffffffffffffffffffffffffffffff167f17307eab39ab6107e8899845ad3d59bd9653f200f220920489ca2b5937696c3183604051611a029190613414565b60405180910390a3505050565b611a1a848484611371565b611a2684848484611d14565b611a65576040517f08c379a0000000000000000000000000000000000000000000000000000000008152600401611a5c90613491565b60405180910390fd5b50505050565b6060611a76826111d0565b6000600a60008481526020019081526020016000208054611a96906138f2565b80601f0160208091040260200160405190810160405280929190818152602001828054611ac2906138f2565b8015611b0f5780601f10611ae457610100808354040283529160200191611b0f565b820191906000526020600020905b815481529060010190602001808311611af257829003601f168201915b505050505090506000611b20611eab565b9050600081511415611b36578192505050611b79565b600082511115611b6b578082604051602001611b53929190613389565b60405160208183030381529060405292505050611b79565b611b7484611ec2565b925050505b919050565b60007f80ac58cd000000000000000000000000000000000000000000000000000000007bffffffffffffffffffffffffffffffffffffffffffffffffffffffff1916827bffffffffffffffffffffffffffffffffffffffffffffffffffffffff19161480611c4957507f5b5e139f000000000000000000000000000000000000000000000000000000007bffffffffffffffffffffffffffffffffffffffffffffffffffffffff1916827bffffffffffffffffffffffffffffffffffffffffffffffffffffffff1916145b80611c595750611c5882611f2a565b5b9050919050565b60008073ffffffffffffffffffffffffffffffffffffffff16611c8283611721565b73ffffffffffffffffffffffffffffffffffffffff1614159050919050565b611cad84848484611f94565b50505050565b50505050565b611cc383836120f4565b611cd06000848484611d14565b611d0f576040517f08c379a0000000000000000000000000000000000000000000000000000000008152600401611d0690613491565b60405180910390fd5b505050565b6000611d358473ffffffffffffffffffffffffffffffffffffffff16612312565b15611e9e578373ffffffffffffffffffffffffffffffffffffffff1663150b7a02611d5e61121b565b8786866040518563ffffffff1660e01b8152600401611d8094939291906133c8565b602060405180830381600087803b158015611d9a57600080fd5b505af1925050508015611dcb57506040513d601f19601f82011682018060405250810190611dc89190612ef3565b60015b611e4e573d8060008114611dfb576040519150601f19603f3d011682016040523d82523d6000602084013e611e00565b606091505b50600081511415611e46576040517f08c379a0000000000000000000000000000000000000000000000000000000008152600401611e3d90613491565b60405180910390fd5b805181602001fd5b63150b7a0260e01b7bffffffffffffffffffffffffffffffffffffffffffffffffffffffff1916817bffffffffffffffffffffffffffffffffffffffffffffffffffffffff191614915050611ea3565b600190505b949350505050565b606060405180602001604052806000815250905090565b6060611ecd826111d0565b6000611ed7611eab565b90506000815111611ef75760405180602001604052806000815250611f22565b80611f0184612335565b604051602001611f12929190613389565b6040516020818303038152906040525b915050919050565b60007f01ffc9a7000000000000000000000000000000000000000000000000000000007bffffffffffffffffffffffffffffffffffffffffffffffffffffffff1916827bffffffffffffffffffffffffffffffffffffffffffffffffffffffff1916149050919050565b611fa084848484612459565b6001811115611fe4576040517f08c379a0000000000000000000000000000000000000000000000000000000008152600401611fdb90613691565b60405180910390fd5b6000829050600073ffffffffffffffffffffffffffffffffffffffff168573ffffffffffffffffffffffffffffffffffffffff16141561202c576120278161257f565b61206b565b8373ffffffffffffffffffffffffffffffffffffffff168573ffffffffffffffffffffffffffffffffffffffff161461206a5761206985826125c8565b5b5b600073ffffffffffffffffffffffffffffffffffffffff168473ffffffffffffffffffffffffffffffffffffffff1614156120ae576120a981612735565b6120ed565b8473ffffffffffffffffffffffffffffffffffffffff168473ffffffffffffffffffffffffffffffffffffffff16146120ec576120eb8482612878565b5b5b5050505050565b600073ffffffffffffffffffffffffffffffffffffffff168273ffffffffffffffffffffffffffffffffffffffff161415612164576040517f08c379a000000000000000000000000000000000000000000000000000000000815260040161215b90613591565b60405180910390fd5b61216d81611c60565b156121ad576040517f08c379a00000000000000000000000000000000000000000000000000000000081526004016121a4906134f1565b60405180910390fd5b6121bb600083836001611ca1565b6121c481611c60565b15612204576040517f08c379a00000000000000000000000000000000000000000000000000000000081526004016121fb906134f1565b60405180910390fd5b6001600360008473ffffffffffffffffffffffffffffffffffffffff1673ffffffffffffffffffffffffffffffffffffffff16815260200190815260200160002060008282540192505081905550816002600083815260200190815260200160002060006101000a81548173ffffffffffffffffffffffffffffffffffffffff021916908373ffffffffffffffffffffffffffffffffffffffff160217905550808273ffffffffffffffffffffffffffffffffffffffff16600073ffffffffffffffffffffffffffffffffffffffff167fddf252ad1be2c89b69c2b068fc378daa952ba7f163c4a11628f55a4df523b3ef60405160405180910390a461230e600083836001611cb3565b5050565b6000808273ffffffffffffffffffffffffffffffffffffffff163b119050919050565b606060006001612344846128f7565b01905060008167ffffffffffffffff811115612389577f4e487b7100000000000000000000000000000000000000000000000000000000600052604160045260246000fd5b6040519080825280601f01601f1916602001820160405280156123bb5781602001600182028036833780820191505090505b509050600082602001820190505b60011561244e578080600190039150507f3031323334353637383961626364656600000000000000000000000000000000600a86061a8153600a8581612438577f4e487b7100000000000000000000000000000000000000000000000000000000600052601260045260246000fd5b04945060008514156124495761244e565b6123c9565b819350505050919050565b600181111561257957600073ffffffffffffffffffffffffffffffffffffffff168473ffffffffffffffffffffffffffffffffffffffff16146124ed5780600360008673ffffffffffffffffffffffffffffffffffffffff1673ffffffffffffffffffffffffffffffffffffffff16815260200190815260200160002060008282546124e591906137f6565b925050819055505b600073ffffffffffffffffffffffffffffffffffffffff168373ffffffffffffffffffffffffffffffffffffffff16146125785780600360008573ffffffffffffffffffffffffffffffffffffffff1673ffffffffffffffffffffffffffffffffffffffff168152602001908152602001600020600082825461257091906137a0565b925050819055505b5b50505050565b6008805490506009600083815260200190815260200160002081905550600881908060018154018082558091505060019003906000526020600020016000909190919091505550565b600060016125d584610d64565b6125df91906137f6565b90506000600760008481526020019081526020016000205490508181146126c4576000600660008673ffffffffffffffffffffffffffffffffffffffff1673ffffffffffffffffffffffffffffffffffffffff168152602001908152602001600020600084815260200190815260200160002054905080600660008773ffffffffffffffffffffffffffffffffffffffff1673ffffffffffffffffffffffffffffffffffffffff168152602001908152602001600020600084815260200190815260200160002081905550816007600083815260200190815260200160002081905550505b6007600084815260200190815260200160002060009055600660008573ffffffffffffffffffffffffffffffffffffffff1673ffffffffffffffffffffffffffffffffffffffff16815260200190815260200160002060008381526020019081526020016000206000905550505050565b6000600160088054905061274991906137f6565b905060006009600084815260200190815260200160002054905060006008838154811061279f577f4e487b7100000000000000000000000000000000000000000000000000000000600052603260045260246000fd5b9060005260206000200154905080600883815481106127e7577f4e487b7100000000000000000000000000000000000000000000000000000000600052603260045260246000fd5b90600052602060002001819055508160096000838152602001908152602001600020819055506009600085815260200190815260200160002060009055600880548061285c577f4e487b7100000000000000000000000000000000000000000000000000000000600052603160045260246000fd5b6001900381819060005260206000200160009055905550505050565b600061288383610d64565b905081600660008573ffffffffffffffffffffffffffffffffffffffff1673ffffffffffffffffffffffffffffffffffffffff168152602001908152602001600020600083815260200190815260200160002081905550806007600084815260200190815260200160002081905550505050565b600080600090507a184f03e93ff9f4daa797ed6e38ed64bf6a1f010000000000000000831061297b577a184f03e93ff9f4daa797ed6e38ed64bf6a1f0100000000000000008381612971577f4e487b7100000000000000000000000000000000000000000000000000000000600052601260045260246000fd5b0492506040810190505b6d04ee2d6d415b85acef810000000083106129de576d04ee2d6d415b85acef810000000083816129d4577f4e487b7100000000000000000000000000000000000000000000000000000000600052601260045260246000fd5b0492506020810190505b662386f26fc100008310612a3357662386f26fc100008381612a29577f4e487b7100000000000000000000000000000000000000000000000000000000600052601260045260246000fd5b0492506010810190505b6305f5e1008310612a82576305f5e1008381612a78577f4e487b7100000000000000000000000000000000000000000000000000000000600052601260045260246000fd5b0492506008810190505b6127108310612acd576127108381612ac3577f4e487b7100000000000000000000000000000000000000000000000000000000600052601260045260246000fd5b0492506004810190505b60648310612b165760648381612b0c577f4e487b7100000000000000000000000000000000000000000000000000000000600052601260045260246000fd5b0492506002810190505b600a8310612b25576001810190505b80915050919050565b60405180606001604052806000815260200160008152602001600073ffffffffffffffffffffffffffffffffffffffff1681525090565b828054612b71906138f2565b90600052602060002090601f016020900481019282612b935760008555612bda565b82601f10612bac57805160ff1916838001178555612bda565b82800160010185558215612bda579182015b82811115612bd9578251825591602001919060010190612bbe565b5b509050612be79190612beb565b5090565b5b80821115612c04576000816000905550600101612bec565b5090565b6000612c1b612c168461372c565b613707565b905082815260208101848484011115612c3357600080fd5b612c3e8482856138b0565b509392505050565b600081359050612c5581613f3b565b92915050565b600081359050612c6a81613f52565b92915050565b600081359050612c7f81613f69565b92915050565b600081519050612c9481613f69565b92915050565b600082601f830112612cab57600080fd5b8135612cbb848260208601612c08565b91505092915050565b60008083601f840112612cd657600080fd5b8235905067ffffffffffffffff811115612cef57600080fd5b602083019150836001820283011115612d0757600080fd5b9250929050565b600081359050612d1d81613f80565b92915050565b600060208284031215612d3557600080fd5b6000612d4384828501612c46565b91505092915050565b60008060408385031215612d5f57600080fd5b6000612d6d85828601612c46565b9250506020612d7e85828601612c46565b9150509250929050565b600080600060608486031215612d9d57600080fd5b6000612dab86828701612c46565b9350506020612dbc86828701612c46565b9250506040612dcd86828701612d0e565b9150509250925092565b60008060008060808587031215612ded57600080fd5b6000612dfb87828801612c46565b9450506020612e0c87828801612c46565b9350506040612e1d87828801612d0e565b925050606085013567ffffffffffffffff811115612e3a57600080fd5b612e4687828801612c9a565b91505092959194509250565b60008060408385031215612e6557600080fd5b6000612e7385828601612c46565b9250506020612e8485828601612c5b565b9150509250929050565b60008060408385031215612ea157600080fd5b6000612eaf85828601612c46565b9250506020612ec085828601612d0e565b9150509250929050565b600060208284031215612edc57600080fd5b6000612eea84828501612c70565b91505092915050565b600060208284031215612f0557600080fd5b6000612f1384828501612c85565b91505092915050565b600060208284031215612f2e57600080fd5b6000612f3c84828501612d0e565b91505092915050565b600080600060408486031215612f5a57600080fd5b6000612f6886828701612d0e565b935050602084013567ffffffffffffffff811115612f8557600080fd5b612f9186828701612cc4565b92509250509250925092565b612fa68161383c565b82525050565b612fb58161382a565b82525050565b612fc48161384e565b82525050565b6000612fd58261375d565b612fdf8185613773565b9350612fef8185602086016138bf565b612ff8816139e2565b840191505092915050565b600061300e82613768565b6130188185613784565b93506130288185602086016138bf565b613031816139e2565b840191505092915050565b600061304782613768565b6130518185613795565b93506130618185602086016138bf565b80840191505092915050565b600061307a602d83613784565b9150613085826139f3565b604082019050919050565b600061309d602b83613784565b91506130a882613a42565b604082019050919050565b60006130c0603283613784565b91506130cb82613a91565b604082019050919050565b60006130e3602683613784565b91506130ee82613ae0565b604082019050919050565b6000613106602583613784565b915061311182613b2f565b604082019050919050565b6000613129601c83613784565b915061313482613b7e565b602082019050919050565b600061314c602483613784565b915061315782613ba7565b604082019050919050565b600061316f601983613784565b915061317a82613bf6565b602082019050919050565b6000613192602983613784565b915061319d82613c1f565b604082019050919050565b60006131b5602e83613784565b91506131c082613c6e565b604082019050919050565b60006131d8602083613784565b91506131e382613cbd565b602082019050919050565b60006131fb602083613784565b915061320682613ce6565b602082019050919050565b600061321e601883613784565b915061322982613d0f565b602082019050919050565b6000613241602183613784565b915061324c82613d38565b604082019050919050565b6000613264603d83613784565b915061326f82613d87565b604082019050919050565b6000613287602683613784565b915061329282613dd6565b604082019050919050565b60006132aa602c83613784565b91506132b582613e25565b604082019050919050565b60006132cd602183613784565b91506132d882613e74565b604082019050919050565b60006132f0603583613784565b91506132fb82613ec3565b604082019050919050565b6000613313601d83613784565b915061331e82613f12565b602082019050919050565b60608201600082015161333f600085018261336b565b506020820151613352602085018261336b565b5060408201516133656040850182612f9d565b50505050565b613374816138a6565b82525050565b613383816138a6565b82525050565b6000613395828561303c565b91506133a1828461303c565b91508190509392505050565b60006020820190506133c26000830184612fac565b92915050565b60006080820190506133dd6000830187612fac565b6133ea6020830186612fac565b6133f7604083018561337a565b81810360608301526134098184612fca565b905095945050505050565b60006020820190506134296000830184612fbb565b92915050565b600060208201905081810360008301526134498184613003565b905092915050565b6000602082019050818103600083015261346a8161306d565b9050919050565b6000602082019050818103600083015261348a81613090565b9050919050565b600060208201905081810360008301526134aa816130b3565b9050919050565b600060208201905081810360008301526134ca816130d6565b9050919050565b600060208201905081810360008301526134ea816130f9565b9050919050565b6000602082019050818103600083015261350a8161311c565b9050919050565b6000602082019050818103600083015261352a8161313f565b9050919050565b6000602082019050818103600083015261354a81613162565b9050919050565b6000602082019050818103600083015261356a81613185565b9050919050565b6000602082019050818103600083015261358a816131a8565b9050919050565b600060208201905081810360008301526135aa816131cb565b9050919050565b600060208201905081810360008301526135ca816131ee565b9050919050565b600060208201905081810360008301526135ea81613211565b9050919050565b6000602082019050818103600083015261360a81613234565b9050919050565b6000602082019050818103600083015261362a81613257565b9050919050565b6000602082019050818103600083015261364a8161327a565b9050919050565b6000602082019050818103600083015261366a8161329d565b9050919050565b6000602082019050818103600083015261368a816132c0565b9050919050565b600060208201905081810360008301526136aa816132e3565b9050919050565b600060208201905081810360008301526136ca81613306565b9050919050565b60006060820190506136e66000830184613329565b92915050565b6000602082019050613701600083018461337a565b92915050565b6000613711613722565b905061371d8282613924565b919050565b6000604051905090565b600067ffffffffffffffff821115613747576137466139b3565b5b613750826139e2565b9050602081019050919050565b600081519050919050565b600081519050919050565b600082825260208201905092915050565b600082825260208201905092915050565b600081905092915050565b60006137ab826138a6565b91506137b6836138a6565b9250827fffffffffffffffffffffffffffffffffffffffffffffffffffffffffffffffff038211156137eb576137ea613955565b5b828201905092915050565b6000613801826138a6565b915061380c836138a6565b92508282101561381f5761381e613955565b5b828203905092915050565b600061383582613886565b9050919050565b600061384782613886565b9050919050565b60008115159050919050565b60007fffffffff0000000000000000000000000000000000000000000000000000000082169050919050565b600073ffffffffffffffffffffffffffffffffffffffff82169050919050565b6000819050919050565b82818337600083830152505050565b60005b838110156138dd5780820151818401526020810190506138c2565b838111156138ec576000848401525b50505050565b6000600282049050600182168061390a57607f821691505b6020821081141561391e5761391d613984565b5b50919050565b61392d826139e2565b810181811067ffffffffffffffff8211171561394c5761394b6139b3565b5b80604052505050565b7f4e487b7100000000000000000000000000000000000000000000000000000000600052601160045260246000fd5b7f4e487b7100000000000000000000000000000000000000000000000000000000600052602260045260246000fd5b7f4e487b7100000000000000000000000000000000000000000000000000000000600052604160045260246000fd5b6000601f19601f8301169050919050565b7f4552433732313a2063616c6c6572206973206e6f7420746f6b656e206f776e6560008201527f72206f7220617070726f76656400000000000000000000000000000000000000602082015250565b7f455243373231456e756d657261626c653a206f776e657220696e646578206f7560008201527f74206f6620626f756e6473000000000000000000000000000000000000000000602082015250565b7f4552433732313a207472616e7366657220746f206e6f6e20455243373231526560008201527f63656976657220696d706c656d656e7465720000000000000000000000000000602082015250565b7f4f776e61626c653a206e6577206f776e657220697320746865207a65726f206160008201527f6464726573730000000000000000000000000000000000000000000000000000602082015250565b7f4552433732313a207472616e736665722066726f6d20696e636f72726563742060008201527f6f776e6572000000000000000000000000000000000000000000000000000000602082015250565b7f4552433732313a20746f6b656e20616c7265616479206d696e74656400000000600082015250565b7f4552433732313a207472616e7366657220746f20746865207a65726f2061646460008201527f7265737300000000000000000000000000000000000000000000000000000000602082015250565b7f4552433732313a20617070726f766520746f2063616c6c657200000000000000600082015250565b7f4552433732313a2061646472657373207a65726f206973206e6f74206120766160008201527f6c6964206f776e65720000000000000000000000000000000000000000000000602082015250565b7f45524337323155524953746f726167653a2055524920736574206f66206e6f6e60008201527f6578697374656e7420746f6b656e000000000000000000000000000000000000602082015250565b7f4552433732313a206d696e7420746f20746865207a65726f2061646472657373600082015250565b7f4f776e61626c653a2063616c6c6572206973206e6f7420746865206f776e6572600082015250565b7f4552433732313a20696e76616c696420746f6b656e2049440000000000000000600082015250565b7f4552433732313a20617070726f76616c20746f2063757272656e74206f776e6560008201527f7200000000000000000000000000000000000000000000000000000000000000602082015250565b7f4552433732313a20617070726f76652063616c6c6572206973206e6f7420746f60008201527f6b656e206f776e6572206f7220617070726f76656420666f7220616c6c000000602082015250565b7f4f6e6c79207468652063616d706169676e2063726561746f722063616e20776960008201527f7468647261770000000000000000000000000000000000000000000000000000602082015250565b7f455243373231456e756d657261626c653a20676c6f62616c20696e646578206f60008201527f7574206f6620626f756e64730000000000000000000000000000000000000000602082015250565b7f446f6e6174696f6e2073686f756c642062652067726561746572207468616e2060008201527f3000000000000000000000000000000000000000000000000000000000000000602082015250565b7f455243373231456e756d657261626c653a20636f6e736563757469766520747260008201527f616e7366657273206e6f7420737570706f727465640000000000000000000000602082015250565b7f476f616c2073686f756c642062652067726561746572207468616e2030000000600082015250565b613f448161382a565b8114613f4f57600080fd5b50565b613f5b8161384e565b8114613f6657600080fd5b50565b613f728161385a565b8114613f7d57600080fd5b50565b613f89816138a6565b8114613f9457600080fd5b5056fea2646970667358221220ef4edb8d4a5d90006631bbe832c3ed9eeef5da209b341a8a66fab5336a71534964736f6c63430008020033",
  "linkReferences": {},
  "deployedLinkReferences": {}
}